:020000040000FA
:04000000C8EF03F052
:10011A00C58AC5881200C580B4EC00F01200C584F7
:10012A00B4EC00F01200C586B4EC00F01200C582EF
:10013A00B4EC00F01200016E01C0C9FFB4EC00F08B
:10014A00120098EC00F08DEC00F0C9501200940EE9
:10015A00036E046AC00E056E9DEC02F012009EA6A4
:10016A00B9EF00F0BBEF00F0B4EF00F09E9612007A
:10017A000F0EC16E1E0E936EF19E8150E009816EC4
:10018A001200016E9EA8CCEF00F0CEEF00F0C7EF90
:10019A0000F001C0ADFF120094869488280EC66E46
:1001AA00310EC86EC79CC78E9E96A196120012EC9D
:1001BA0004F0BDEC00F002EC01F0D1EC00F0C5EC6B
:1001CA0001F01200106E000E016E0F5065EC01F086
:1001DA00010E016E105065EC01F01200036E90ECF6
:1001EA0000F0D00EA0EC00F00350A0EC00F002509A
:1001FA00A0EC00F094EC00F01200C08EC09AC08807
:10020A00C096C090C082C094C292C19AC198000E92
:10021A00C46E000EC36EC280120001000100040009
:10022A00030003000100010078004F4E00474E0012
:10023A0047520047310047320047330047340043F2
:10024A004F00026E90EC00F0D00EA0EC00F00250CD
:10025A00A0EC00F09CEC00F0D10EA0EC00F0A6ECB3
:10026A0000F0036E94EC00F003501200948E949CFC
:10027A00AC9CAC8AAC98AC96AC84AB8EAB9CAB888D
:10028A00B89EB896B892B890810EAF6E9D889E9827
:10029A009D8A9E9A1200026E90EC00F0A00EA0ECCD
:1002AA0000F00250A0EC00F09CEC00F0A10EA0ECD3
:1002BA0000F0A6EC00F0036E94EC00F0035012007C
:1002CA00026E01B06BEF01F06EEF01F082826FEF08
:1002DA0001F0829202C083FF82848294958E82808A
:1002EA0082928284829483BE7DEF01F07FEF01F0D7
:1002FA0076EF01F08290959E1200126E90EC00F05B
:10030A00A00EA0EC00F01250A0EC00F00F50A0ECF0
:10031A0000F094EC00F00B0E116EB80E106E100681
:10032A00D8A01106102806E11128D8A49FEF01F0E1
:10033A00A1EF01F094EF01F01200076E07C003F07D
:10034A00D8900336D8900336C250C30B0310C26E3E
:10035A00C282C2B2B3EF01F0B5EF01F0AEEF01F025
:10036A00C350C4CF03F0046A03C004F0036A031045
:10037A00056E0450066E05C001F006C002F01200B8
:10038A00000E26EC01F0046E04508009026E000E85
:10039A00F3EC00F0020E26EC01F0046E0450400962
:1003AA00026E020EF3EC00F0930E026E070EF3ECEF
:1003BA0000F0000E26EC01F0046E04507F0B026E72
:1003CA00000EF3EC00F0120056494557204C4F47F7
:1003DA002020202020200000434C454152204C4F31
:1003EA004720202020200000444F574E4C4F4144C4
:1003FA00204C4F47202000005345542054494D4576
:10040A0020202020202000004348414E474520500C
:10041A005744202020200000F60E036E2E0E046E94
:10042A00800E056E9DEC02F00D0E076EAF0E066E85
:10043A00B60EE82EFED7062EFCD7072EFAD700D026
:10044A00000E00017D6F000E7C6F000E916F010E91
:10045A00906F000E5B6E020E5A6E000E456E000E15
:10046A00446E000E016E010E65EC01F0120052EFAF
:10047A0002F002C0F6FF03C0F7FFF86A050EF76440
:10048A0003D00800F55005D0F6CFE9FFF7CFEAFF11
:10049A00EF50C6EC00F0024A032A02C0F6FF03C07E
:1004AA00F7FFF86A050EF76403D00800F55005D087
:1004BA00F6CFE9FFF7CFEAFFEF500009D8A468EFBB
:1004CA0002F06AEF02F03EEF02F012000A500B103F
:1004DA00D8B472EF02F074EF02F098EF02F0010E56
:1004EA000C6E7CEF02F0D8900A360B360C2A0BAE53
:1004FA0081EF02F083EF02F078EF02F00A50085C15
:10050A000B500958D8A08CEF02F08EEF02F092EF50
:10051A0002F00A50085E0B50095AD8900B320A3280
:10052A000C2E83EF02F008C008F009C009F012008F
:10053A00000E016E055065EC01F0BAEF02F0010EF3
:10054A00016E03C0F6FF04C0F7FFF86A050EF764F0
:10055A0003D00800F55005D0F6CFE9FFF7CFEAFF40
:10056A00EF5065EC01F0034A042A03C0F6FF04C009
:10057A00F7FFF86A050EF76403D00800F55005D0B6
:10058A00F6CFE9FFF7CFEAFFEF500009D8A4D0EF82
:10059A0002F0D2EF02F0A4EF02F01200000E066E93
:1005AA00000E056E03500410D8B4DEEF02F0E0EF3F
:1005BA0002F008EF03F0010E076EE8EF02F0D890A0
:1005CA0003360436072A04AEEDEF02F0EFEF02F02D
:1005DA00E4EF02F0D890053606360350015C045069
:1005EA000258D8A0FBEF02F0FDEF02F002EF03F091
:1005FA000350015E0450025A0580D8900432033237
:10060A00072EEFEF02F005C001F006C002F012005B
:10061A00016E0104D8A414EF03F016EF03F03AEFC9
:10062A0003F048EC03F05E6E5E28D8B41FEF03F0C7
:10063A0021EF03F02EEF03F05F50D8B427EF03F059
:10064A0029EF03F02EEF03F0000E5F6E5E5047EFC6
:10065A0003F05E28D8A434EF03F036EF03F046EF38
:10066A0003F0010E5F6E46EF03F00150D8A440EF8D
:10067A0003F042EF03F046EF03F048EC03F047EFD4
:10068A0003F0FF0E1200819A818C818E81B250EFA5
:10069A0003F052EF03F055EF03F0010E85EF03F07C
:1006AA00818A819C818E81B25DEF03F05FEF03F056
:1006BA0062EF03F0020E85EF03F081B867EF03F0F3
:1006CA0069EF03F06CEF03F00B0E85EF03F0818AFC
:1006DA00818C819E819E81B275EF03F077EF03F0E2
:1006EA007AEF03F0030E85EF03F081B87FEF03F092
:1006FA0081EF03F084EF03F00C0E85EF03F0FF0E99
:10070A001200020E26EC01F0376E010E26EC01F003
:10071A00386E000E26EC01F0396E37AC97EF03F015
:10072A0099EF03F0A5EF03F037380F0B010B300FE9
:10073A000001946F37500F0B300F956FAFEF03F036
:10074A0037380F0B030B300F0001946F37500F0B24
:10075A00300F956F3A0E966F38380F0B0F0B300F1C
:10076A00976F38500F0B300F986F3A0E996F3938D0
:10077A000F0B0F0B300F9A6F39500F0B300F9B6F07
:10078A00000E9C6F1200D20EF66E030EF76E000E6C
:10079A00F86E01EEA0F010EE50F00900F5CFEEFF72
:1007AA00E550E150FAE1240EF66E020EF76E000EE5
:1007BA00F86E00EE9DF010EE28F00900F5CFEEFF7E
:1007CA00E550E150FAE1000EF66E300EF76E000EBB
:1007DA00F86E0900F5CF5FF001EEF0F011EE40F08F
:1007EA00EE6AE550E150FCE1E250FAE101EE00F078
:1007FA00A00EEE6AE806FDE100EE60F03D0EEE6A3C
:10080A00E806FDE100EE37F0280EEE6AE806FDE1A3
:10081A00000EF86E000120EF05F0000E956E945060
:10082A00F80B946E8290C30E036ECD0EE82EFED79F
:10083A00032EFCD70000000E016E330E65EC01F0AA
:10084A001B0E036E9E0EE82EFED7032EFCD700D099
:10085A00000E016E330E65EC01F0A60EE82EFED7EF
:10086A0000D0000E016E330E65EC01F000D000D00E
:10087A000000000E016E020E65EC01F0A60EE82ED5
:10088A00FED700D0000E016E380E65EC01F0A60E00
:10089A00E82EFED700D0000E016E010E65EC01F0C5
:1008AA00040E036E3E0EE82EFED7032EFCD7000E72
:1008BA00016E0C0E65EC01F0A60EE82EFED700D0F4
:1008CA001200000E0E6E0ABE6FEF04F06DEF04F018
:1008DA0075EF04F0096C0A1ED8B00A2A010E0E6ED2
:1008EA000CBE7CEF04F07AEF04F080EF04F00B6C9E
:1008FA000C1ED8B00C2A0B500C10D8B487EF04F099
:10090A0089EF04F0ADEF04F0010E0D6E91EF04F0E3
:10091A00D8900B360C360D2A0CAE96EF04F098EFF1
:10092A0004F08DEF04F00B50095C0C500A58D8A063
:10093A00A1EF04F0A3EF04F0A7EF04F00B50095E57
:10094A000C500A5AD8900C320B320D2E98EF04F044
:10095A000E50D8B4B3EF04F0B5EF04F0B9EF04F0D9
:10096A00096C0A1ED8B00A2A09C009F00AC00AF09E
:10097A001200000E066E04BEC7EF04F0C5EF04F0C5
:10098A00CDEF04F0036C041ED8B0042A010E066EE3
:10099A0002BED4EF04F0D2EF04F0DAEF04F0016CF7
:1009AA00021ED8B0022A010E061A000E086E000EA8
:1009BA00076E03500410D8B4E5EF04F0E7EF04F033
:1009CA000FEF05F0010E056EEFEF04F0D890033635
:1009DA000436052A04AEF4EF04F0F6EF04F0EBEF68
:1009EA0004F0D890073608360350015C04500258C8
:1009FA00D8A002EF05F004EF05F009EF05F0035067
:100A0A00015E0450025A0780D89004320332052E40
:100A1A00F6EF04F00650D8B415EF05F017EF05F01D
:100A2A001BEF05F0076C081ED8B0082A07C001F0B2
:100A3A0008C002F01200DCEC00F05A505B10D8A497
:100A4A0029EF05F02BEF05F02FEF05F07AEC07F010
:100A5A0022EF05F05A045B10D8A436EF05F038EF00
:100A6A0005F03CEF05F0EDEC0CF022EF05F0020E7C
:100A7A005A185B10D8A444EF05F046EF05F04AEF88
:100A8A0005F07EEC09F022EF05F0030E5A185B1010
:100A9A00D8A452EF05F054EF05F058EF05F0FBEC3F
:100AAA000EF022EF05F0040E5A185B10D8A460EF7E
:100ABA0005F062EF05F066EF05F011EC02F022EFA7
:100ACA0005F0050E5A185B10D8A46EEF05F070EF0A
:100ADA0005F074EF05F069EC08F022EF05F0060E58
:100AEA005A185B10D8A47CEF05F07EEF05F082EF70
:100AFA0005F06AEC13F022EF05F0070E5A185B10A6
:100B0A00D8A48AEF05F08CEF05F090EF05F01DEC04
:100B1A0011F022EF05F022EF05F000EF00F02A3481
:100B2A002B34316E3150D8A49DEF05F09FEF05F0BC
:100B3A00A9EF05F0000E286E000E296E000E2A6E2F
:100B4A00000E2B6E16EF06F028C02CF029C02DF0EF
:100B5A002AC02EF02BC02FF0200EB9EF05F0D89046
:100B6A002F322E322D322C32E82EB4EF05F02C50D3
:100B7A00306E2A8EFF0E2816FF0E2916FF0E2A1631
:100B8A00000E2B16960E315E31BED0EF05F0CEEF79
:100B9A0005F0E6EF05F03150800A970FD8B0D8EF8C
:100BAA0005F0DAEF05F0DCEF05F09FEF05F0D890DD
:100BBA002B322A3229322832313EDCEF05F0FEEFA1
:100BCA0005F01F0E3164ECEF05F0EEEF05F0F6EFDD
:100BDA0005F09FEF05F0D890283629362A362B36AD
:100BEA0031063150D8A4FCEF05F0FEEF05F0F0EF26
:100BFA0005F03050D8B404EF06F006EF06F00EEF19
:100C0A0006F02B1E2A1E291E286C000E29222A22D3
:100C1A002B2228C028F029C029F02AC02AF02BC08C
:100C2A002BF0120045BE25EF06F0455007E10A0EEB
:100C3A00445CD8B023EF06F025EF06F027EF06F064
:100C4A00444A452A000E146E000E136E1350940F78
:100C5A00D96EDA6ADF500F6E425082EC01F0424AD6
:100C6A00432A134A142A14BE44EF06F0145009E129
:100C7A00080E135CD8A044EF06F046EF06F02BEFFF
:100C8A0006F0000E166E000E156E5450030DF3504A
:100C9A00AD0F1524D96EDA6ADF500F6E425082EC1E
:100CAA0001F0424A432A154A162A16BE66EF06F092
:100CBA00165009E1020E155CD8A066EF06F068EF3F
:100CCA0006F04AEF06F056C001F057C002F0000ED7
:100CDA00046E0A0E036EBEEC04F00150300F0F6E64
:100CEA00425082EC01F0424A432A56C009F057C0EA
:100CFA000AF0000E0C6E0A0E0B6E66EC04F0095038
:100D0A00300F0F6E425082EC01F0424A432A780EAD
:100D1A0042184310D8A494EF06F096EF06F09FEF1E
:100D2A0006F0000E436E000E426E000E0001836F45
:100D3A00010E826F1200096E0950D8B4A7EF06F0AF
:100D4A00A9EF06F0CBEF06F004BEB0EF06F0AEEF67
:100D5A0006F0CBEF06F001C005F002C006F003C0B2
:100D6A0007F004C008F0051E061E071E081E052A05
:100D7A00000E06220722082205C00BF006C00CF05E
:100D8A0007C00DF008C00EF0D3EF06F001C00BF05B
:100D9A0002C00CF003C00DF004C00EF001500210A6
:100DAA0003100410D8A4DCEF06F0DEEF06F0E8EF3B
:100DBA0006F0000E016E000E026E000E036E000EAB
:100DCA00046E79EF07F0960E0A6EF2EF06F00A2A21
:100DDA00D8900E320D320C320B32000E0B14056E07
:100DEA00000E0C14066E000E0D14076EFE0E0E1485
:100DFA00086E0550061007100810D8A407EF07F070
:100E0A0009EF07F0ECEF06F017EF07F00A2A010ED8
:100E1A000B26000E0C220D220E22D8900E320D3215
:100E2A000C320B32000E0B14056E000E0C14066EFB
:100E3A00000E0D14076EFF0E0E14086E05500610F4
:100E4A0007100810D8A42CEF07F02EEF07F00BEFCD
:100E5A0007F036EF07F00A06D8900B360C360D3637
:100E6A000E360DBE3BEF07F03DEF07F045EF07F0FA
:100E7A00020E0A6043EF07F045EF07F030EF07F084
:100E8A000AB04AEF07F04CEF07F04DEF07F00D9E5E
:100E9A00D8900A320AC005F0066A076A086A05C0CD
:100EAA0008F0076A066A056A05500B1206500C120A
:100EBA0007500D1208500E120950D8B467EF07F008
:100ECA0069EF07F071EF07F004BE70EF07F06EEFFD
:100EDA0007F071EF07F00E8E0BC001F00CC002F0A4
:100EEA000DC003F00EC004F01200040EA2EC01F0D3
:100EFA0001C033F002C034F00A0E136ED70E146E1E
:100F0A00230E156E410E166E33C001F034C002F086
:100F1A00000E02BEFF0E036E046E010EA0EC06F078
:100F2A0001C00FF002C010F003C011F004C012F0AB
:100F3A0020EC0BF00FC028F010C029F011C02AF0E5
:100F4A0012C02BF094EC05F028C056F029C057F0D7
:100F5A00CE0E0F6E56C009F057C00AF0000E0C6E86
:100F6A000A0E0B6E66EC04F00950300FE7EC00F045
:100F7A00CD0E0F6E000E046E0A0E036E56C001F0FF
:100F8A0057C002F0BEEC04F001C009F002C00AF03A
:100F9A00000E0C6E0A0E0B6E66EC04F00950300F50
:100FAA00E7EC00F0180E036E2F0E046E800E056E2D
:100FBA009DEC02F0010E0DEC03F0326E3250356EEC
:100FCA00366A020E35183610D8A4EEEF07F0F0EFA5
:100FDA0007F008EF08F0544A552A55BEFEEF07F00D
:100FEA00555009E1060E545CD8A0FEEF07F000EF59
:100FFA0008F004EF08F0000E556E060E546E17EC5A
:10100A0006F038EF08F0030E35183610D8A410EFA2
:10101A0008F012EF08F029EF08F05406D8A0550698
:10102A0055BE23EF08F0555007E1020E545CD8B0C4
:10103A0021EF08F023EF08F004EF08F0000E556ED8
:10104A00010E546E04EF08F035043610D8A430EFC0
:10105A0008F032EF08F038EF08F0000E556E070E70
:10106A00546E04EF08F05450030DF350AD0F326E76
:10107A0032C003F0046AC90E056E9DEC02F086ECDC
:10108A0003F0ACEC00F00B0E35183610D8A450EF74
:10109A0008F052EF08F068EF08F0000E5B6E010EE0
:1010AA005A6E000E0001916F000E906F000E596E7D
:1010BA00000E586E000E8F6F040E8E6F000E016EBA
:1010CA00010E65EC01F012003BEC01F000019051B9
:1010DA009111D8A473EF08F075EF08F054EF09F0F6
:1010EA0045BE80EF08F0455008E14404D8A080EFDF
:1010FA0008F082EF08F054EF09F0290E036E2F0E64
:10110A00046E800E056E9DEC02F00D0E076EAF0E9A
:10111A00066EB60EE82EFED7062EFCD7072EFAD795
:10112A0000D0B50E026E2E0E036E3CEC02F0CF0E0E
:10113A00026E2E0E036E3CEC02F0000E0B6E000ED9
:10114A000A6E2BEF09F0000E0D6E000E0C6E080EE3
:10115A000C180D10D8B4B4EF08F0B6EF08F0C0EFD1
:10116A0008F00B0E0C180D10D8A4BEEF08F0C0EF53
:10117A0008F0DDEF08F00AC006F00BC007F0063AE7
:10118A00073AF00E071606500F0B0712F00E061656
:10119A00000E0624086E010E0720096E0C50082462
:1011AA00D96E0D500920DA6E200EDF6EFEEF08F0C0
:1011BA000AC006F00BC007F0063A073AF00E071607
:1011CA0006500F0B0712F00E0616000E0624086EC4
:1011DA00010E0720096E0C500824D96E0D50092003
:1011EA00DA6E00017C5150EC01F0DF6E00017C4B9D
:1011FA007D2B0C4A0D2A0DBE0CEF09F00D5009E1AA
:10120A000E0E0C5CD8A00CEF09F00EEF09F0ACEF53
:10121A0008F00AC006F00BC007F0063A073AF00ECB
:10122A00071606500F0B0712F00E0616000E0624BC
:10123A00026E010E0720036E3CEC02F0FC0E026EF9
:10124A002F0E036E3CEC02F00A4A0B2A44500A5C49
:10125A000B50800A066E4550800A0658D8A038EF0F
:10126A0009F03AEF09F0A8EF08F0780E00017C19AE
:10127A007D11D8A443EF09F045EF09F049EF09F0D1
:10128A00000E7D6F000E7C6F000E5B6E020E5A6EB2
:10129A00000E016E010E65EC01F07DEF09F0390ECA
:1012AA00036E2F0E046E800E056E9DEC02F00D0E7D
:1012BA00076EAF0E066EB60EE82EFED7062EFCD7C8
:1012CA00072EFAD700D0000E5B6E020E5A6EE30E9E
:1012DA00026E2E0E036E3CEC02F0FC0E026E2F0E16
:1012EA00036E3CEC02F0000E016E010E65EC01F09B
:1012FA001200000186518711D8A486EF09F088EF01
:10130A0009F0C2EF09F0800E0F6E2A0EE7EC00F02A
:10131A00C00E0F6E200EE7EC00F04AC011F04BC071
:10132A0012F0113A123AF00E121611500F0B121255
:10133A00F00E1116A00E1124036E010E1220046E77
:10134A00820E056E9DEC02F04AC011F04BC012F0FD
:10135A00113A123AF00E121611500F0B1212F00E29
:10136A001116B00E1124036E010E1220046EC20E65
:10137A00056E9DEC02F0D7EF09F086058711D8A417
:10138A00C9EF09F0CBEF09F0D7EF09F0800E0F6E25
:10139A00200EE7EC00F0C00E0F6E2A0EE7EC00F00C
:1013AA0092EF09F0000E0DEC03F0116E11505C6E15
:1013BA005D6A0C0E5C185D10D8A4E6EF09F0E8EF40
:1013CA0009F007EF0AF04C4A4D2A4DBEF6EF09F034
:1013DA00F50E4C5C010E4D58D8A0F6EF09F0F8EF67
:1013EA0009F05DEF0AF0000E4D6E000E4C6E000E15
:1013FA005B6E000E5A6E000E016E010E65EC01F076
:10140A005DEF0AF04DBE12EF0AF04D5008E14C04B0
:10141A00D8A012EF0AF014EF0AF05DEF0AF04DBE01
:10142A0022EF0AF0F40E4C5C010E4D58D8B020EFB2
:10143A000AF022EF0AF05DEF0AF051BE27EF0AF038
:10144A0029EF0AF039EF0AF051BE37EF0AF051508E
:10145A0007E1050E505CD8B035EF0AF037EF0AF015
:10146A0039EF0AF0504A512A000E4D6E000E4C6EAA
:10147A00000186518711D8A445EF0AF047EF0AF018
:10148A004DEF0AF0000E876F010E866F5DEF0AF0CE
:10149A004BBE5BEF0AF04B5007E1030E4A5CD8B033
:1014AA0059EF0AF05BEF0AF05DEF0AF04A4A4B2A5D
:1014BA000B0E5C185D10D8A465EF0AF067EF0AF00E
:1014CA00D0EF0AF04E4A4F2A4FBE75EF0AF0F50EDA
:1014DA004E5C010E4F58D8A075EF0AF077EF0AF06C
:1014EA001FEF0BF0000E4F6E000E4E6E5050511053
:1014FA00D8A482EF0AF084EF0AF08AEF0AF0000E0D
:10150A005B6E030E5A6EC9EF0AF050045110D8A44C
:10151A0091EF0AF093EF0AF099EF0AF0000E5B6E72
:10152A00040E5A6EC9EF0AF0020E50185110D8A4D0
:10153A00A1EF0AF0A3EF0AF0A9EF0AF0000E5B6E22
:10154A00050E5A6EC9EF0AF0030E50185110D8A4AE
:10155A00B1EF0AF0B3EF0AF0B9EF0AF0000E5B6ED2
:10156A00060E5A6EC9EF0AF0040E50185110D8A48C
:10157A00C1EF0AF0C3EF0AF0C9EF0AF0000E5B6E82
:10158A00070E5A6EC9EF0AF0000E016E010E65ECE5
:10159A0001F01FEF0BF04FBEDBEF0AF04F5008E1EE
:1015AA004E04D8A0DBEF0AF0DDEF0AF01FEF0BF0D4
:1015BA004FBEEBEF0AF0F40E4E5C010E4F58D8B056
:1015CA00E9EF0AF0EBEF0AF01FEF0BF051BEF6EF6E
:1015DA000AF0515008E15004D8A0F6EF0AF0F8EFEB
:1015EA000AF0FBEF0AF05006D8A05106000E4F6E23
:1015FA00000E4E6E000186058711D8A407EF0BF086
:10160A0009EF0BF00FEF0BF0000E876F000E866FDD
:10161A001FEF0BF04BBE1AEF0BF04B5008E14A04D8
:10162A00D8A01AEF0BF01CEF0BF01FEF0BF04A06D5
:10163A00D8A04B0612001250800B1F6E12501224B3
:10164A00266E11AE2BEF0BF02DEF0BF02EEF0BF0F9
:10165A0026802650D8B434EF0BF036EF0BF04BEF60
:10166A000BF02628D8A43CEF0BF03EEF0BF046EF28
:10167A000BF0000E0F6E000E106E000E116E000EB3
:10168A00126E118E000E126E53EF0BF0000E0F6EDB
:10169A00000E106E000E116E000E126E1650800BA8
:1016AA001F1A16501624276E15AE5EEF0BF060EF68
:1016BA000BF061EF0BF027802750D8B467EF0BF0DF
:1016CA0069EF0BF07EEF0BF02728D8A46FEF0BF031
:1016DA0071EF0BF079EF0BF0000E136E000E146E23
:1016EA00000E156E000E166E158E000E166E86EF23
:1016FA000BF0000E136E000E146E000E156E000E27
:10170A00166E1350141015101610D8A48FEF0BF084
:10171A0091EF0BF0A9EF0BF0000E0F6E000E106E9A
:10172A00000E116E000E126E800E11127F0E121232
:10173A001F5012120FC00FF010C010F011C011F09C
:10174A0012C012F0ECEF0CF02650D8A4AFEF0BF059
:10175A00B1EF0BF0BBEF0BF0000E0F6E000E106E28
:10176A00000E116E000E126EECEF0CF0275026C020
:10177A0017F0186A175E000E185A7F0E1724206E8B
:10178A00000E1820216E0FC01BF010C01CF011C0F3
:10179A001DF012C01EF0000E0F6E000E106E000E2D
:1017AA00116E000E126E000E226E000E236E000ED7
:1017BA00246E000E256E000E276E1CEF0CF02750CB
:1017CA00D8B4EAEF0BF0ECEF0BF003EF0CF0D89083
:1017DA001B361C361D361E36D8900F36103611367B
:1017EA00123625AEFBEF0BF0FDEF0BF0FEEF0BF020
:1017FA000F80D890223623362436253613501B5CA8
:10180A0014501C5815501D5816501E58D8A010EFC9
:10181A000CF012EF0CF01BEF0CF0258C13501B5E32
:10182A0014501C5A15501D5A16501E5A272A190EA2
:10183A00276422EF0CF024EF0CF0E4EF0BF01B50BE
:10184A001C101D101E10D8B42DEF0CF02FEF0CF049
:10185A0047EF0CF0228047EF0CF0D8900F36103685
:10186A001136123625AE3CEF0CF03EEF0CF03FEF8E
:10187A000CF00F80D89022362336243625362006DF
:10188A00D8A0210611AE4CEF0CF04EEF0CF032EF5F
:10189A000CF0000E276E25AE55EF0CF057EF0CF04A
:1018AA007BEF0CF0FF0E2214176EFF0E2314186E36
:1018BA00FF0E2414196E7F0E25141A6E1750181075
:1018CA0019101A10D8B46CEF0CF06EEF0CF072EF1E
:1018DA000CF0010E276E7BEF0CF00FA077EF0CF0E7
:1018EA0079EF0CF07BEF0CF06EEF0CF02750D8B4C8
:1018FA0081EF0CF083EF0CF0A7EF0CF0010E0F262E
:10190A00000E10221122122212A08EEF0CF090EF7C
:10191A000CF0A7EF0CF00FC017F010C018F011C0B0
:10192A0019F012C01AF01A341A3219321832173250
:10193A0017C00FF018C010F019C011F01AC012F039
:10194A00204A212A21BEB2EF0CF0215008E12028BA
:10195A00D8A0B2EF0CF0B4EF0CF0BFEF0CF0000E11
:10196A00216E2068000E0F6E000E106E000E116EB2
:10197A00000E126E21BECCEF0CF0215006E12004BD
:10198A00D8B0CAEF0CF0CCEF0CF0DAEF0CF0000E86
:10199A00216E000E206E000E0F6E000E106E000EED
:1019AA00116E000E126E000E1F6E20C026F026A0C9
:1019BA00E1EF0CF0E3EF0CF0E6EF0CF0118EE7EF3D
:1019CA000CF0119ED8902630126E9DEF0BF012008B
:1019DA000001A951AA11D8B4F5EF0CF0F7EF0CF0F9
:1019EA000FEF0DF0800E50EC01F00001706F810EC8
:1019FA0050EC01F00001716F820E50EC01F0000111
:101A0A00726F830E50EC01F00001736F000EAA6F23
:101A1A00000EA96FA351A411D8B416EF0DF018EF58
:101A2A000DF04FEF0DF0010E6827000E69236A23AF
:101A3A006B23D10E681909E1070E69196A116B1136
:101A4A00D8A42AEF0DF02CEF0DF036EF0DF0884BED
:101A5A00892B000E686F000E696F000E6A6F000E08
:101A6A006B6F050E88198911D8A43EEF0DF040EF6F
:101A7A000DF04FEF0DF0000E896F000E886F000E0B
:101A8A005B6E000E5A6E000E016E010E65EC01F0DF
:101A9A00FAEF0EF0010E0DEC03F0116E1150000179
:101AAA00926F936BA705A811D8A45EEF0DF060EFB3
:101ABA000DF0A3EF0DF0090E036E2F0E046E800ECB
:101ACA00056E9DEC02F00B0E000192199311D8A439
:101ADA0071EF0DF073EF0DF08BEF0DF05850C00F52
:101AEA000F6E2A0EE7EC00F058506C0FD96EDA6AC6
:101AFA00310EDF6E584A592A00018E07D8A08F0787
:101B0A00000E896F000E886FA3EF0DF00C0E92196C
:101B1A009311D8A493EF0DF095EF0DF0A3EF0DF00C
:101B2A005850C00F0F6E2A0EE7EC00F058506C0F99
:101B3A00D96EDA6A300EDF6E7FEF0DF08E518F119B
:101B4A00D8A4AAEF0DF0ACEF0DF02DEF0EF0000EB9
:101B5A00536E000E526E5250700FD96EDA6A52509E
:101B6A006C0FE16EE26ADE50E618D8B4BFEF0DF0F2
:101B7A00C1EF0DF013EF0EF0000E596E000E586E05
:101B8A000001A351A411D8A4CDEF0DF0CFEF0DF0B1
:101B9A00D5EF0DF0000E8F6F000E8E6FD9EF0DF09E
:101BAA00000E8F6F040E8E6F000EA86F010EA76FC6
:101BBA00B60E036E2F0E046E800E056E9DEC02F0BB
:101BCA00C50E036E2F0E046EC00E056E9DEC02F05C
:101BDA00CD0E0F6E0001A307D8A0A407A351300FA2
:101BEA00E7EC00F01A0E126E5E0E116E6E0EE82E03
:101BFA00FED7112EFCD7122EFAD700D0000E016E96
:101C0A00010E65EC01F0000E0001896F000E886F6D
:101C1A00000E8B6F000E8A6F2DEF0EF0000E000182
:101C2A008B6F010E8A6F000E016E010E65EC01F0DA
:101C3A00524A532A53BE2BEF0EF0535009E1040EB9
:101C4A00525CD8A02BEF0EF02DEF0EF0B0EF0DF096
:101C5A0000018A058B11D8A435EF0EF037EF0EF08C
:101C6A005BEF0EF0D30E036E2F0E046E800E056E20
:101C7A009DEC02F0690E036E2F0E046EC00E056E07
:101C8A009DEC02F0000E5B6E020E5A6E000E000111
:101C9A00A46F030EA36F000E8B6F000E8A6F000EE7
:101CAA00016E010E65EC01F0FAEF0EF0A351A411DA
:101CBA00D8A462EF0EF064EF0EF0FAEF0EF0000E09
:101CCA00186E780E176EE3EF0EF0000E0001896FA2
:101CDA00000E886F000E016E010E65EC01F0790EA0
:101CEA00036E2F0E046E800E056E9DEC02F0F60E4A
:101CFA00036E2F0E046EC00E056E9DEC02F0C80E28
:101D0A000F6E17C001F018C002F0000E046E640EC8
:101D1A00036ED3EC02F00150300FE7EC00F0C90E6D
:101D2A000F6E000E046E0A0E036E17C001F018C083
:101D3A0002F0D3EC02F001C008F002C009F0000E74
:101D4A000B6E0A0E0A6E6BEC02F00850300FE7ECCD
:101D5A0000F0CA0E0F6E17C008F018C009F0000E86
:101D6A000B6E0A0E0A6E6BEC02F00850300FE7ECAD
:101D7A0000F0EF0E036E2F0E046ECB0E056E9DEC77
:101D8A0002F0200E136EA10E146E070E156E000ED1
:101D9A00166ED5EF0EF01306000E145A155A165A7F
:101DAA001350141015101610D8A4DEEF0EF0E0EF41
:101DBA000EF0D0EF0EF01706D8A01806175018101C
:101DCA00D8A4EAEF0EF0ECEF0EF06AEF0EF0000E78
:101DDA000001A46F030EA36F000E5B6E000E5A6E15
:101DEA00000E016E010E65EC01F012000001820581
:101DFA008311D8A403EF0FF005EF0FF00DEF0FF0EA
:101E0A00000E9E6F010E9D6F000E836F000E826F93
:101E1A0090519111D8A414EF0FF016EF0FF0FFEFC5
:101E2A0010F045BE21EF0FF0455008E14404D8A058
:101E3A0021EF0FF023EF0FF0FFEF10F0DF0E036E2C
:101E4A002F0E046E800E056E9DEC02F000019D05BA
:101E5A009E11D8A433EF0FF035EF0FF0C0EF0FF05B
:101E6A00000E1A6E000E196EACEF0FF0000E1E6E09
:101E7A00000E1D6E080E1D181E10D8B447EF0FF085
:101E8A0049EF0FF053EF0FF00B0E1D181E10D8A4D8
:101E9A0051EF0FF053EF0FF073EF0FF019C011F07D
:101EAA001AC012F0050ED89011361236E82E58EFE5
:101EBA000FF0F00E1124136E010E1220146ED8903A
:101ECA001D34D96E1E34DA6E1350D9261450DA2214
:101EDA00200EDE6E000EDD6E9AEF0FF000017C51CF
:101EEA0050EC01F0116E126A19C013F01AC014F006
:101EFA00050ED89013361436E82E7EEF0FF0F00E4A
:101F0A001324156E010E1420166ED8901D34D96E46
:101F1A001E34DA6E1550D9261650DA2211C0DEFFA9
:101F2A0012C0DDFF00017C4B7D2B1D4A1E2A1EBEFE
:101F3A00A8EF0FF01E5009E10E0E1D5CD8A0A8EF05
:101F4A000FF0AAEF0FF03FEF0FF0194A1A2A445088
:101F5A00195C1A50800A116E4550800A1158D8A08F
:101F6A00B9EF0FF0BBEF0FF03BEF0FF0000E0001DF
:101F7A009E6F000E9D6F000E0DEC03F0116E115056
:101F8A00176E186A0B0E17181810D8A4CFEF0FF097
:101F9A00D1EF0FF0D6EF0FF000017A4B7B2B2EEF2B
:101FAA0010F000017BBFE2EF0FF07B5108E17A05E8
:101FBA00D8A0E2EF0FF0E4EF0FF02AEF10F07BBFAA
:101FCA00F2EF0FF0F40E7A5D010E7B59D8B0F0EF04
:101FDA000FF0F2EF0FF02AEF10F0000E7B6F000EF9
:101FEA007A6F8051116E8151126E010E805F000E60
:101FFA00815B12BE0BEF10F0125006E11104D8B04B
:10200A0009EF10F00BEF10F00FEF10F0000E816FD8
:10201A00000E806F7E51116E7F51126E010E7E5F2F
:10202A00000E7F5B12BE24EF10F0125006E111047D
:10203A00D8B022EF10F024EF10F02EEF10F0000EBF
:10204A007F6F000E7E6F2EEF10F0000E7B6F000E7A
:10205A007A6F0C0E17181810D8A436EF10F038EF54
:10206A0010F057EF10F0784B792B79BF46EF10F04C
:10207A00F50E785D010E7959D8A046EF10F048EFB9
:10208A0010F0ABEF10F0000E796F000E786F000EB3
:10209A005B6E020E5A6E000E016E010E65EC01F0C7
:1020AA001CEF11F079BF62EF10F0795108E1780561
:1020BA00D8A062EF10F064EF10F0A7EF10F079BF2C
:1020CA0072EF10F0F40E785D010E7959D8B070EF06
:1020DA0010F072EF10F0A7EF10F0000E796F000EFB
:1020EA00786FFF0E4424116EFF0E4520126E1150B8
:1020FA007E5D7F51800A136E1250800A1358D8B041
:10210A0089EF10F08BEF10F0ABEF10F0804B812BC2
:10211A007E51116E7F51126E7E4B7F2B12BE9FEF46
:10212A0010F0125009E1090E115CD8A09FEF10F0CF
:10213A00A1EF10F0ABEF10F0000E7F6F090E7E6F6B
:10214A00ABEF10F0000E796F000E786F000E1C6E68
:10215A00020E1B6EC00E0F6E7E51300FE7EC00F0C0
:10216A00C10E0F6E2E0EE7EC00F01B50C00F0F6E63
:10217A0080C011F081C012F0050ED89011361236C7
:10218A00E82EC2EF10F01BC013F01CC014F0D89058
:10219A0013361436EC0E1324156E010E1420166E27
:1021AA0011501524D96E12501620DA6EDF50E7EC62
:1021BA0000F0780E00017C197D11D8A4E7EF10F029
:1021CA00E9EF10F0EDEF10F0000E7D6F000E7C6F5E
:1021DA001B4A1C2A1CBEFBEF10F01C5009E1100E12
:1021EA001B5CD8A0FBEF10F0FDEF10F0AFEF10F082
:1021FA001CEF11F0590E036E2F0E046E800E056E41
:10220A009DEC02F00D0E126EAF0E116EB60EE82E98
:10221A00FED7112EFCD7122EFAD700D0000E5B6E15
:10222A00020E5A6E000E016E010E65EC01F01200EC
:10223A00000E0DEC03F0136E1350156E166A0001B2
:10224A009F05A011D8A42CEF11F02EEF11F0F2EF98
:10225A0011F0090E036E2F0E046E800E056E9DECB2
:10226A0002F00B0E15181610D8A43EEF11F040EF2D
:10227A0011F044EF11F04E4A4F2A7BEF11F04FBE96
:10228A004FEF11F04F5008E14E04D8A04FEF11F074
:10229A0051EF11F077EF11F04FBE5FEF11F0F40E2E
:1022AA004E5C010E4F58D8B05DEF11F05FEF11F0A0
:1022BA0077EF11F0000E4F6E000E4E6E4850C00FB1
:1022CA000F6E2A0EE7EC00F04850640FD96EDA6AF6
:1022DA00310EDF6E484A492A0001A107D8A0A20799
:1022EA007BEF11F0000E4F6E000E4E6E0C0E15189D
:1022FA001610D8A483EF11F085EF11F0A4EF11F0B6
:10230A00464A472A47BE93EF11F0F50E465C010E86
:10231A004758D8A093EF11F095EF11F0D5EF11F0CF
:10232A00000E476E000E466E000E5B6E020E5A6E6F
:10233A00000E016E010E65EC01F069EF13F047BE65
:10234A00AFEF11F0475008E14604D8A0AFEF11F003
:10235A00B1EF11F0D5EF11F047BEBFEF11F0F40E57
:10236A00465C010E4758D8B0BDEF11F0BFEF11F02F
:10237A00D5EF11F0000E476E000E466E4850C00FA2
:10238A000F6E2A0EE7EC00F04850640FD96EDA6A35
:10239A00300EDF6E484A492A0001A107D8A0A207D9
:1023AA000001A151A211D8A4DDEF11F0DFEF11F065
:1023BA00CAEF12F0000EA06F020E9F6F000E496E58
:1023CA00000E486E000EA26F040EA16F000E016E81
:1023DA00010E65EC01F0CAEF12F0020E9F19A0116E
:1023EA00D8A4FAEF11F0FCEF11F0CAEF12F0070EC1
:1023FA00036E2F0E046E800E056E9DEC02F00B0E1E
:10240A0015181610D8A40CEF12F00EEF12F024EFE4
:10241A0012F04E4A4F2A4FBE1CEF12F0F50E4E5CD8
:10242A00010E4F58D8A01CEF12F01EEF12F055EF14
:10243A0012F0000E4F6E000E4E6E55EF12F04FBEA8
:10244A002FEF12F04F5008E14E04D8A02FEF12F0F0
:10245A0031EF12F055EF12F04FBE3FEF12F0F40ECB
:10246A004E5C010E4F58D8B03DEF12F03FEF12F01C
:10247A0055EF12F0000E4F6E000E4E6E4850C00F10
:10248A000F6E2A0EE7EC00F04850600FD96EDA6A38
:10249A00310EDF6E484A492A0001A107D8A0A207D7
:1024AA000C0E15181610D8A45DEF12F05FEF12F09B
:1024BA007EEF12F0464A472A47BE6DEF12F0F50E3C
:1024CA00465C010E4758D8A06DEF12F06FEF12F07C
:1024DA00AFEF12F0000E476E000E466E000E5B6EF6
:1024EA00020E5A6E000E016E010E65EC01F069EFE4
:1024FA0013F047BE89EF12F0475008E14604D8A00E
:10250A0089EF12F08BEF12F0AFEF12F047BE99EF9E
:10251A0012F0F40E465C010E4758D8B097EF12F04D
:10252A0099EF12F0AFEF12F0000E476E000E466EF2
:10253A004850C00F0F6E2A0EE7EC00F04850600FAB
:10254A00D96EDA6A300EDF6E484A492A0001A107BD
:10255A00D8A0A2070001A151A211D8A4B7EF12F086
:10256A00B9EF12F0CAEF12F0000EA06F000E9F6FC3
:10257A00000E496E000E486E000EA26F040EA16F87
:10258A00000E016E010E65EC01F000019F51A011D1
:10259A00D8A4D2EF12F0D4EF12F069EF13F0000EC4
:1025AA00186E000E176E1750600FD96EDA6A175040
:1025BA00640FE16EE26ADE50E618D8B4E7EF12F073
:1025CA00E9EF12F0EEEF12F0000E0001856F010E36
:1025DA00846F174A182A18BEFCEF12F0185009E146
:1025EA00040E175CD8A0FCEF12F0FEEF12F0D8EF41
:1025FA0012F0000184518511D8A406EF13F008EFF8
:10260A0013F047EF13F0E70E036E2F0E046E800EE1
:10261A00056E9DEC02F0000E1A6E000E196E19502E
:10262A00640FD96EDA6ADF500F6E1950800F82EC90
:10263A0001F0194A1A2A1A5009E1040E195CD8A0A5
:10264A0029EF13F02BEF13F014EF13F00D0E146EA5
:10265A00AF0E136EB60EE82EFED7132EFCD7142E2D
:10266A00FAD700D0000E5B6E020E5A6E000E000101
:10267A00A06F010E9F6F000E016E010E65EC01F056
:10268A0069EF13F0A70E036E2F0E046E800E056E0F
:10269A009DEC02F00D0E146EAF0E136EB60EE82E00
:1026AA00FED7132EFCD7142EFAD700D0000E5B6E7D
:1026BA00000E5A6E000E0001A06F010E9F6F000EF1
:1026CA00016E010E65EC01F01200980E036E2F0EDA
:1026DA00046E800E056E9DEC02F000019D059E11B0
:1026EA00D8A47AEF13F07CEF13F0B0EF13F0945103
:1026FA000A0DF3CF11F0F4CF12F095511126000E06
:10270A001222F00E11243E6EFD0E12203F6E9751DA
:10271A000A0DF3CF11F0F4CF12F098511126000EE2
:10272A001222F00E11243C6EFD0E12203D6E9A51BB
:10273A000A0DF3CF11F0F4CF12F09B511126000EBF
:10274A001222F00E11243A6EFD0E12203B6E000E7C
:10275A009E6F000E9D6F000E0DEC03F0116E11506E
:10276A005C6E5D6A0B0E5C185D10D8A4BFEF13F0A7
:10277A00C1EF13F03DEF14F00001764B772B77BFD2
:10278A00D0EF13F0F50E765D010E7759D8A0D0EF91
:10279A0013F0D2EF13F0BFEF14F0000E776F000EB4
:1027AA00766F000E016E010E65EC01F0490E036EA4
:1027BA002F0E046E800E056E9DEC02F0890E036EDC
:1027CA002F0E046EC00E056E9DEC02F037C002F0AB
:1027DA00020EF3EC00F038C002F0010EF3EC00F048
:1027EA0039C002F0000EF3EC00F0200E136EA10EB9
:1027FA00146E070E156E000E166E1306000E145A8E
:10280A00155A165A13280AE1142808E1152806E170
:10281A001628D8A413EF14F015EF14F002EF14F0F1
:10282A00200E176EA10E186E070E196E000E1A6E84
:10283A001706000E185A195A1A5A17280AE11828A0
:10284A0008E1192806E11A28D8A42EEF14F030EF6F
:10285A0014F01DEF14F0000E016E010E65EC01F08C
:10286A00000E5B6E020E5A6E59EF17F0BFEF14F0AE
:10287A00000177BF49EF14F0775108E17605D8A037
:10288A0049EF14F04BEF14F0BFEF14F077BF59EF94
:10289A0014F0F40E765D010E7759D8B057EF14F0A4
:1028AA0059EF14F0BFEF14F0000E776F000E766F39
:1028BA0040504110D8A464EF14F066EF14F07EEF94
:1028CA0014F03FBE74EF14F03F5007E1170E3E5C60
:1028DA00D8B072EF14F074EF14F078EF14F03E4AA7
:1028EA003F2ABFEF14F0000E3F6E000E3E6EBFEFA0
:1028FA0014F040044110D8A485EF14F087EF14F0C7
:10290A009FEF14F03DBE95EF14F03D5007E13B0EEA
:10291A003C5CD8B093EF14F095EF14F099EF14F0F3
:10292A003C4A3D2ABFEF14F0000E3D6E000E3C6E8D
:10293A00BFEF14F0020E40184110D8A4A7EF14F00C
:10294A00A9EF14F03BEF14F03BBEB7EF14F03B5085
:10295A0007E13B0E3A5CD8B0B5EF14F0B7EF14F0CC
:10296A00BBEF14F03A4A3B2ABFEF14F0000E3B6E5D
:10297A00000E3A6E0C0E5C185D10D8A4C7EF14F066
:10298A00C9EF14F0E8EF14F0744B752B75BFD7EF4D
:10299A0014F0F50E745D010E7559D8A0D7EF14F036
:1029AA00D9EF14F01DEF15F0000E756F000E746F5D
:1029BA00000E5B6E020E5A6E000E016E010E65EC81
:1029CA0001F059EF17F075BFF3EF14F0755108E1F4
:1029DA007405D8A0F3EF14F0F5EF14F01DEF15F01D
:1029EA0075BF03EF15F0F40E745D010E7559D8B07A
:1029FA0001EF15F003EF15F01DEF15F0000E756FDE
:102A0A00000E746F41BE15EF15F0415007E1020E3A
:102A1A00405CD8B013EF15F015EF15F019EF15F06B
:102A2A00404A412A1DEF15F0000E416E000E406E1D
:102A3A0040504110D8A424EF15F026EF15F099EF75
:102A4A0015F04C50116E4D50126E4C4A4D2A12BE62
:102A5A003AEF15F0880E115C130E1258D8B038EF01
:102A6A0015F03AEF15F057EF15F0C40E0F6E200E61
:102A7A00E7EC00F0C50E0F6E200EE7EC00F0030E37
:102A8A001C6EE80E1B6E1B06D8A01C061B2806E14E
:102A9A001C28D8A453EF15F055EF15F048EF15F0A0
:102AAA0099EF15F04DBE63EF15F0F40E4C5C010E74
:102ABA004D58D8A063EF15F065EF15F095EF15F0B6
:102ACA004DBE73EF15F0E80E4C5C030E4D58D8B0AE
:102ADA0071EF15F073EF15F095EF15F0C40E0F6E48
:102AEA003EC001F03FC002F0000E046E0A0E036EF3
:102AFA00BEEC04F00150300FE7EC00F0C50E0F6E8B
:102B0A003EC009F03FC00AF0000E0C6E0A0E0B6EB2
:102B1A0066EC04F00950300FE7EC00F099EF15F07D
:102B2A00000E4D6E000E4C6E40044110D8A4A0EF6A
:102B3A0015F0A2EF15F015EF16F04C50116E4D502E
:102B4A00126E4C4A4D2A12BEB6EF15F0F40E115C05
:102B5A00010E1258D8B0B4EF15F0B6EF15F0D3EF56
:102B6A0015F0C70E0F6E200EE7EC00F0C80E0F6EC0
:102B7A00200EE7EC00F0030E1E6EE80E1D6E1D0619
:102B8A00D8A01E061D2806E11E28D8A4CFEF15F0EE
:102B9A00D1EF15F0C4EF15F015EF16F04DBEDFEFCB
:102BAA0015F0F40E4C5C010E4D58D8A0DFEF15F06D
:102BBA00E1EF15F011EF16F04DBEEFEF15F0E80E4C
:102BCA004C5C030E4D58D8B0EDEF15F0EFEF15F051
:102BDA0011EF16F0C70E0F6E3CC001F03DC002F0B7
:102BEA00000E046E0A0E036EBEEC04F00150300FA4
:102BFA00E7EC00F0C80E0F6E3CC009F03DC00AF0C9
:102C0A00000E0C6E0A0E0B6E66EC04F00950300FC3
:102C1A00E7EC00F015EF16F0000E4D6E000E4C6E4C
:102C2A00020E40184110D8A41DEF16F01FEF16F03F
:102C3A0092EF16F04C50116E4D50126E4C4A4D2ABE
:102C4A0012BE33EF16F0F40E115C010E1258D8B012
:102C5A0031EF16F033EF16F050EF16F0CA0E0F6E82
:102C6A00200EE7EC00F0CB0E0F6E200EE7EC00F022
:102C7A00030E206EE80E1F6E1F06D8A020061F281E
:102C8A0006E12028D8A44CEF16F04EEF16F041EFDB
:102C9A0016F092EF16F04DBE5CEF16F0F40E4C5C97
:102CAA00010E4D58D8A05CEF16F05EEF16F08EEFCD
:102CBA0016F04DBE6CEF16F0E80E4C5C030E4D5844
:102CCA00D8B06AEF16F06CEF16F08EEF16F0CA0E57
:102CDA000F6E3AC001F03BC002F0000E046E0A0EFD
:102CEA00036EBEEC04F00150300FE7EC00F0CB0E9F
:102CFA000F6E3AC009F03BC00AF0000E0C6E0A0EC5
:102D0A000B6E66EC04F00950300FE7EC00F092EF1E
:102D1A0016F0000E4D6E000E4C6E5C285D10D8A4A5
:102D2A0099EF16F09BEF16F059EF17F0C40E0F6EDD
:102D3A003EC001F03FC002F0000E046E0A0E036EA0
:102D4A00BEEC04F00150300FE7EC00F0C50E0F6E38
:102D5A003EC009F03FC00AF0000E0C6E0A0E0B6E60
:102D6A0066EC04F00950300FE7EC00F0C70E0F6E66
:102D7A003CC001F03DC002F0000E046E0A0E036E64
:102D8A00BEEC04F00150300FE7EC00F0C80E0F6EF5
:102D9A003CC009F03DC00AF0000E0C6E0A0E0B6E24
:102DAA0066EC04F00950300FE7EC00F0CA0E0F6E23
:102DBA003AC001F03BC002F0000E046E0A0E036E28
:102DCA00BEEC04F00150300FE7EC00F0CB0E0F6EB2
:102DDA003AC009F03BC00AF0000E0C6E0A0E0B6EE8
:102DEA0066EC04F00950300FE7EC00F0C60E0F6EE7
:102DFA003A0EE7EC00F0C90E0F6E3A0EE7EC00F05F
:102E0A003EC009F03FC00AF0000E0C6E0A0E0B6EAF
:102E1A0066EC04F009C011F00AC012F03EC001F0DD
:102E2A003FC002F0000E046E0A0E036EBEEC04F000
:102E3A000138F00B1110376E3CC009F03DC00AF0A2
:102E4A00000E0C6E0A0E0B6E66EC04F009C011F04F
:102E5A000AC012F03CC001F03DC002F0000E046E40
:102E6A000A0E036EBEEC04F00138F00B1110386E36
:102E7A003AC009F03BC00AF0000E0C6E0A0E0B6E47
:102E8A0066EC04F009C011F00AC012F03AC001F071
:102E9A003BC002F0000E046E0A0E036EBEEC04F094
:102EAA000138F00B1110396E12000020202020206A
:102EBA00444F574E4C4F4144204C4F47202020202E
:102ECA00200A200D0023202054494D45202020208F
:102EDA0045562053500A200D004E4F204C4F475361
:102EEA002050524553454E540A200D00414C4C2067
:102EFA004C4F475320434C45415245440052654587
:102F0A006E7465722070617373776F72640020202B
:102F1A0054494D4520202045565420535044002002
:102F2A00646F776E6C6F6164696E672E2E2E004E29
:102F3A004F204C4F47532050524553454E54002082
:102F4A0020205345542054494D4520202020004E2E
:102F5A006F206C6F67732070726573656E740057AB
:102F6A00454C434F4D45205348454B484152007903
:102F7A006F752061726520626C6F636B65640053C4
:102F8A00554343535346554C4C2021212100544963
:102F9A004D452848483A4D4D3A53532900574F5208
:102FAA004E472050415353574F52440050415353B8
:102FBA00574F524420574F524E4700415454454DA3
:102FCA0050204C4546542D3E0053554343455353D8
:102FDA0046554C4C004C4F4753203A2D005355430D
:102FEA0043455353005365632E2E2E00576169746F
:072FFA0020000A0D00000198
:020000040020DA
:08000000FFFFFFFFFFFFFFFF00
:020000040030CA
:0E000000FF071F1FFF8285FF0FC00FE00F409C
:00000001FF
